:020000040000FA
:1000000008040020D5000000EF000000C307000036
:1000100000000000000000000000000000000000E0
:10002000000000000000000000000000F3000000DD
:100030000000000000000000F5000000AF09000013
:10004000FD0700000508000000000000000000009F
:100050000000000097030000000000000000000006
:10006000DF070000E707000049080000000000006B
:1000700000000000000000001D0500002505000034
:100080000000000000000000BB07000000000000AE
:100090000000000000000000D50700003F0800003D
:1000A0008F03000000000000190A0000210A000070
:1000B000EF07000000000000390600002D050000D9
:1000C0000348854600F03AF90048004781030000E4
:1000D0000804002009480A4A002100A1814200D9F1
:1000E0000244084802600848804708480047FEE785
:1000F000FEE7FEE7FEE7FEE7FEE700000000002067
:100100000000000008ED00E0C9090000C100000087
:10011000D2B201E00270401C491EFBD2704700229F
:10012000F6E710B513460A4604461946FFF7F0FFF6
:10013000204610BDF0B51FB488B00B990998002473
:1001400048400999C00F490049080991C0070B9917
:100150000090490049080B9109990898A646084360
:100160001CD00B990A98084318D009980124400024
:10017000420D4800410D099824050003000B20435F
:1001800009900B980003000B20430B9050181C495A
:100190004018002201901446104605E00020014658
:1001A0000DB0F0BD032801DA034600E003239C46AE
:1001B000C11A0AAE0AE05F0008ADED5B4F00F75BC5
:1001C0007D430027AA187C41491C5B1E6145F2DD76
:1001D000410004AB5A522104120C0A43240C401C67
:1001E0000828DFDB01980290009970460191009089
:1001F000059B049A0799069800F04EF8D0E7000096
:100200000DFCFFFF0EB505490291002100910A4641
:100210000B46019100F040F803B000BD330400002C
:100220004A0009030123090B1B051943094B10B5AB
:10023000520D9A4201DA002010BD064B34339A4227
:1002400003DC9A1A00F00AF810BD034951188840DF
:1002500010BD0000FF030000CDFBFFFF10B5202AFA
:1002600004DB0846203AD040002110BD0B46D340A5
:10027000D0402024A21A91400843194610BD10B561
:10028000002B08DA0024401C614192185B411A439C
:1002900001D14008400010BDF0B51FB482B0054642
:1002A0000C0003D0084600F0D7FB02E000F0D4FBBE
:1002B0002030024600902146284600F051F8049B69
:1002C000059A04460F4618431143084314D01846B4
:1002D00010431BD0009840210A1A18460599FFF7D1
:1002E000BDFF05460E46009A0599049800F038F8BF
:1002F000084305D0012004E02046394607B0F0BD90
:100300000020C11705430E432C43374300990E9834
:100310006305401A7905E40A00220C43FD0A0A30FD
:1003200002D500200146E9E70105101969410C9C3E
:100330000D9D00196941FFF7A2FFDFE7064C01257B
:10034000064E05E0E36807CC2B430C3C984710347D
:10035000B442F7D3FFF7B8FEA40A0000C40A0000B5
:1003600010B5202A04DB0146203A9140002010BD40
:10037000914020239C1A0346E3401943904010BD4E
:1003800080B500F021FB00F051FB002080BD80B55E
:1003900000F005F880BD80B500F002F880BD704720
:1003A00070474160704701690122914301617047C4
:1003B000016901220A43026170470000FCB503692C
:1003C0000D4A1A400C680F1DE8CF00974F6901973E
:1003D00023432B433343009C2343019C2343074C7B
:1003E0001C40144304610268054B1340098B1943F8
:1003F0000160002002B0F0BD01F0FFFFFE0F000021
:100400000000FFFF42690A4342617047C2698A43A4
:10041000C261704782690A400120002A00D110465B
:100420007047000010B504461821FFF778FE014818
:10043000A06110BDFFFF0000F0B587B006466D4615
:100440001C212846FFF76BFE0124600200F05AFAD7
:10045000202000F097FA2846FFF7E4FF00270197D5
:1004600000976020029003973046FFF7CBFE2A4B9F
:100470003A46FFF75FFEFFF7D3FE401E0690EE4EB2
:1004800030462946FFF79AFF30462146FFF7BEFF68
:1004900030462146FFF7B6FF0E200321224600F02A
:1004A00087F807B0F0BDC046F0B587B006466D4688
:1004B0001C212846FFF733FE0124600200F022FAD7
:1004C000202000F05FFA2846FFF7ACFF00270197D5
:1004D00000976020029003973046FFF793FE0E4B83
:1004E0003A46FFF727FEFFF79BFE401E06902D4E73
:1004F00030462946FFF762FF30462146FFF786FF68
:1005000030462146FFF77EFF0E200321224600F0F1
:100510004FF807B0F0BDC0460000194080B500F0AC
:1005200009F880BD80B500F041F880BD80B500F0CD
:100530003EF880BDF8B5C04D012428462146FFF79E
:1005400069FF6702174C184E012816D12020306031
:100550007760002620463146FFF723FF2046FFF74D
:1005600027FF2846FFF71FFF284631460E4EFFF7AC
:1005700018FF01212846FFF749FF01212046FFF718
:1005800049FF01280DD12020706037602046FFF719
:100590000AFF00212046FFF704FF01212046FFF754
:1005A00035FFF8BD00190040100D0240704770473C
:1005B000B0B500280BDB1F23034001249C401B4BDC
:1005C0001C60032304469C43194BE31806E00F23E9
:1005D0000340083B0324A343134C1B19C4001825F4
:1005E00025408901C9B2A940FF24AC401D68A5433C
:1005F0000D431D60012A08D1002813DB1F2108408C
:10060000012181400B480160B0BD00280ADB1F2199
:100610000840012181408020064A1150BFF34F8FCE
:10062000BFF36F8FB0BDC0461CED00E080E200E07C
:1006300000E400E000E100E080B500F001F880BDDA
:100640007047000070B50022D2434F4B984257D0FC
:100650004C680F2325461D40012D06D10C6801254D
:100660002D024659264346514C6825461D40022D11
:1006700026D10C680D7C002D04D02125ED004659B3
:10068000264304E054402125ED00465926404651BA
:100690000C680D792D062D0F04D04B25AD00465961
:1006A000264304E054404B25AD00465926404651B0
:1006B0000C68544001252D024659264046514C688D
:1006C0001C400B68042C04D14324A40005591D438D
:1006D00004E053404324A40005591D4005510B6814
:1006E000012424058D68A54204D10924640105591B
:1006F0001D4304E053400924640105591D40055180
:100700000F231B024C681C409C423BD10B688C7B26
:10071000E40705D153402724E40005591D4003E0B8
:100720002724E40005591D4305510B688C7BA40761
:1007300005D453404F24A40005591D4003E04F2425
:10074000A40005591D4305510B688C7B640705D433
:1007500053401324240105591D4003E013242401B0
:1007600005591D4305510B68897B090705D4534082
:100770004D21890042581A4003E04D21890042581A
:100780001A43425070BDC046400C02402122120163
:1007900083588B4383507047024601204302D2584E
:1007A0000A40002A00D1104670470421002202604E
:1007B00041608260C2600274704780B500F009F841
:1007C00080BD81B00020009000980028FCD001B0CE
:1007D0007047704780B500F001F880BD704780B564
:1007E00000F009F880BD80B500F006F880BD80B546
:1007F00000F003F880BD70477047704780B500F087
:1008000005F880BD80B500F019F880BD10B53C4CEE
:1008100004212046FFF7C0FF01280BD10421204608
:10082000FFF7B4FF044C00212046FFF7BAFD204635
:10083000FFF7BEFD10BDC04600180040704780B5F0
:1008400000F001F880BD704780B500F0AFF880BDC2
:1008500010B586B001AC14212046FFF760FC20469D
:10086000FFF7A3FF1C2000F08DF80020039012205A
:1008700002902020019022482146FFF7E3FE06B0B7
:1008800010BDC04670B586B001AC14212046FFF7FC
:1008900046FC2046FFF789FF1C2000F073F8002576
:1008A0000395094802900126300404900420019029
:1008B00013482146FFF7C6FE022128463246FFF7BD
:1008C00077FE06B070BDC046010F000010B586B0BF
:1008D00001AC14212046FFF722FC2046FFF765FFFC
:1008E0001C2000F04FF800200390122002900120FD
:1008F0004002019002482146FFF7A4FE06B010BD59
:10090000000C02400449404A4A60404A4A600A6872
:1009100002430A607047C0460418024010B51349EC
:100920000868E02202400020402A0BD0002A17D19C
:10093000C868000C032202400220504080000DA233
:1009400010580DE04A690120C003094B1C68A242FF
:1009500006D05C684B2040020023A24200D018461B
:100960000968090A07220A40D04010BD0018024059
:10097000A80710000048E801006CDC0200093D00F7
:10098000808D5B008106084905D4012282400868F9
:10099000104308607047202290430122824048683B
:1009A000104348607047C04620180240704780B529
:1009B00000F001F880BD704780B5FFF7AFFF014937
:1009C000086080BD0000002080B50C4800680C491C
:1009D00008600C480C49C1600C49C1600121C90282
:1009E00002680A430260FFF7E7FF094809494160CE
:1009F000002181600521016080BDC046BC07100058
:100A00000C180240200002405A5A0000A5A5000020
:100A100010E000E0FFFFFF0080B500F005F880BDAA
:100A200080B500F002F880BD7047704710B5FFF741
:100A300029FFFFF70DFF074C20202060FFF746FF3E
:100A40000120400220603C20FFF7F6FC4620FFF723
:100A50002BFDFEE7100D02402021020C01D01021D9
:100A60001046020A01D010460839020901D010468A
:100A7000091F820801D01046891E420801D0881E35
:100A80007047081A704702E008C8121F08C1002A00
:100A9000FAD170477047002001E001C1121F002AFF
:100AA000FBD17047C80A00000000002008000000C9
:100AB000860A0000D00A00000800002000040000A0
:100AC000960A00000000000000093D000000000040
:04000005000000C136
:00000001FF
