:020000040000FA
:1020000040080020D5200000EF200000772E0000BF
:1020100000000000000000000000000000000000C0
:10202000000000000000000000000000F32000009D
:102030000000000000000000F52000008B350000CB
:102040009B330000A33300000000000000000000EC
:1020500000000000612600000000000000000000F9
:10206000673200006F320000E9330000000000001A
:102070000000000000000000552800005D2800005E
:102080000000000000000000792D000000000000AA
:1020900000000000000000005D320000DF3300009F
:1020A000CB25000000000000FD35000005360000D3
:1020B0008D33000000000000C929000065280000E1
:1020C0000348854600F058FA00480047BD25000047
:1020D0004008002009480A4A002100A1814200D995
:1020E0000244084802600848804708480047FEE765
:1020F000FEE7FEE7FEE7FEE7FEE700000020000047
:102100000000000008ED00E0A5350000C12000003F
:1021100030B50B46014600202022012409E00D467F
:10212000D5409D4205D31D469540491B2546954007
:1021300040191546521E002DF1DC30BD03460B43FD
:102140009B0703D009E008C9121F08C0042AFAD26D
:1021500003E00B780370401C491C521EF9D27047F3
:10216000D2B201E00270401C491EFBD2704700222F
:10217000F6E710B513460A4604461946FFF7F0FF86
:10218000204610BDF8B502464A40D40F42004B002D
:1021900052085B089A4202D20246084611464A009B
:1021A00023D0C30D4A00DDB2120EAD1A202D35DA50
:1021B00049020126490AF6058A19002C00D052422C
:1021C00020214F1B1146B9402A411018C20D9A42D6
:1021D00021D0002C17D0012D08DCDA05801AD20F8F
:1021E0008019D207DBB200F02EF9F8BDDA05801AAB
:1021F000012340001B06C01880185A428018CA0FDD
:102200001043490007E04908C2071143DA05801A64
:1022100080194008801800F00EF9F8BD6100012215
:10222000511A001BF7E70122D2075140AAE7012209
:10223000D2075040A6E770B502464A40D50F40008D
:102240004A00ED0740085208002814D0002A12D096
:10225000C40DD30D41020120C0055202490A520AA1
:10226000E41A091812187D34914201D3641C00E06D
:102270004900002C01DA002070BD0023914201D3F7
:10228000891A0343400849000028F7D100290AD0E1
:10229000914202D10121C90705E0914201D20121F9
:1022A00001E00121C943E005C018401900F0C3F85E
:1022B00070BD0000F0B51FB488B00B9909980024D8
:1022C00048400999C00F490049080991C0070B9976
:1022D0000090490049080B9109990898A6460843BF
:1022E0001CD00B990A98084318D009980124400083
:1022F000420D4800410D099824050003000B2043BE
:1023000009900B980003000B20430B9050181C49B8
:102310004018002201901446104605E000200146B6
:102320000DB0F0BD032801DA034600E003239C460C
:10233000C11A0AAE0AE05F0008ADED5B4F00F75B23
:102340007D430027AA187C41491C5B1E6145F2DDD4
:10235000410004AB5A522104120C0A43240C401CC5
:102360000828DFDB019802900099704601910090E7
:10237000059B049A0799069800F0ABF8D0E7000097
:102380000DFCFFFF10B500229623114600F05BF80C
:1023900010BD00000EB505490291002100910A46CA
:1023A0000B46019100F095F803B000BD3304000026
:1023B000410040020122400AD205090E80187F29FF
:1023C00001DA00207047962903DC9622511AC84092
:1023D00070479639884070474A0009030123090B6A
:1023E0001B051943094B10B5520D9A4201DA002022
:1023F00010BD064B34339A4203DC9A1A00F00AF8F7
:1024000010BD03495118884010BD0000FF030000B3
:10241000CDFBFFFF10B5202A04DB0846203AD04050
:10242000002110BD0B46D340D0402024A21A914079
:102430000843194610BD002904DA401C490001D1A7
:1024400040084000704770B40024050C05D11024EA
:10245000000402D1002921D01124050E01D100026F
:102460000834050F01D10001241D850F01D1800022
:10247000A41C002801DB4000641C002908D0202592
:102480002E1B0D46F540A14000D0012129430843F1
:1024900001061B1B000ADB1D02D5002070BC704723
:1024A000DB05181880180029F8DA401C4900F5D11E
:1024B00070BC40084000704710B5002B08DA0024BB
:1024C000401C614192185B411A4301D14008400011
:1024D00010BDF0B51FB482B005460C0003D008460D
:1024E00001F074F902E001F071F920300246009029
:1024F0002146284600F052F8049B059A04460F46F0
:1025000018431143084314D0184610431BD00098B9
:1025100040210A1A18460599FFF77CFF05460E462A
:10252000009A0599049800F039F8084305D0012075
:1025300004E02046394607B0F0BD0020C11705432E
:102540000E432C43374300990E986305401A7905D2
:10255000E40A00220C43FD0A0A3002D5002001469D
:10256000E9E70105101969410C9C0D9D00196941AD
:10257000FFF7A2FFDFE70000064C0125064E05E04D
:10258000E36807CC2B430C3C98471034B442F7D394
:10259000FFF79AFD543800007438000010B5202A67
:1025A00004DB0146203A9140002010BD91402023D9
:1025B0009C1A0346E3401943904010BD80B500F0DB
:1025C000F1FF01F025F8002080BD80B500F04CF847
:1025D00080BD0000F8B5154C154D25800125A5706E
:1025E000E0702171002565712272069E701CA07139
:1025F000000AE071002B07D0002E05D020460930DC
:1026000019463246FFF79AFD3046093087B2204618
:1026100029463A4600F09AFAE055000AE119487056
:102620000B36044886814581F8BDC0462C02002047
:102630006DAC00000800002010B5084909E00B69E6
:1026400008242342FBD00B68FF24A34313430B60F1
:10265000401C0278002AF2D110BDC0460080004024
:1026600080B500F002F880BD704770474160704748
:1026700001690122914301617047016901220A4306
:1026800002617047FCB503690D4A1A400C680F1DC2
:10269000E8CF00974F69019723432B433343009CB6
:1026A0002343019C2343074C1C40144304610268EC
:1026B000054B1340098B19430160002002B0F0BDA7
:1026C00001F0FFFFFE0F00000000FFFF42690A4318
:1026D00042617047C2698A43C261704782690A4099
:1026E0000120002A00D110467047000010B50446B2
:1026F0001821FFF73CFD0148A06110BDFFFF00005D
:1027000080B500211C2200F021FA80B280BD00219A
:1027100004E00F2252028A5C4254491C2029F8D15D
:1027200070470000B0B588B00F214C0200220E495E
:1027300004E0135D6D46AB5412195218202AF8D1EB
:1027400001900A4800906846FFF7DAFF079020469C
:1027500000F028FA002804D169462022204600F023
:1027600081FA08B0B0BDC04601E2FFFF424C4348C9
:10277000F0B587B006466D461C212846FFF7F7FCEA
:102780000124600200F08EFE202000F0CBFE2846DF
:10279000FFF7ACFF00270197009760200290039796
:1027A0003046FFF7F7FD2A4B3A46FFF783FDFFF768
:1027B00013FE401E0690494E30462946FFF762FF41
:1027C00030462146FFF786FF30462146FFF77EFF61
:1027D0000E200321224600F0B3F807B0F0BDC0463A
:1027E000F0B587B006466D461C212846FFF7BFFCB2
:1027F0000124600200F056FE202000F093FE2846DF
:10280000FFF774FF0027019700976020029003975D
:102810003046FFF7BFFD0E4B3A46FFF74BFDFFF783
:10282000DBFD401E06902E4E30462946FFF72AFF5C
:1028300030462146FFF74EFF30462146FFF746FF60
:102840000E200321224600F07BF807B0F0BDC04601
:102850000000194080B500F009F880BD80B500F097
:1028600043F880BD80B500F040F880BDF8B51B4D41
:10287000012428462146FFF731FF6702184C194E04
:10288000012816D12020306077600026204631468E
:10289000FFF7ECFE2046FFF7F0FE2846FFF7E8FEC4
:1028A000284631460F4EFFF7E1FE01212846FFF78B
:1028B00011FF01212046FFF711FF01280DD1202033
:1028C000706037602046FFF7D3FE00212046FFF7F7
:1028D000CDFE01212046FFF7FDFEF8BD00180040A7
:1028E00000190040100D024070477047B0B5044613
:1028F0000C4800687D21C900FFF70AFC60430A49C3
:102900000B6800221C460B689C42FCD001D9E41ADB
:1029100004E0E41A0325ED434D596419A2188242DC
:10292000F0D3B0BD0000002018E000E0002804D182
:1029300005E000220270401C491E0029F9D17047B1
:10294000B0B500280BDB1F23034001249C401B4B28
:102950001C60032304469C43194BE31806E00F2335
:102960000340083B0324A343134C1B19C400182540
:1029700025408901C9B2A940FF24AC401D68A54388
:102980000D431D60012A08D1002813DB1F210840D8
:10299000012181400B480160B0BD00280ADB1F21E6
:1029A0000840012181408020064A1150BFF34F8F1B
:1029B000BFF36F8FB0BDC0461CED00E080E200E0C9
:1029C00000E400E000E100E080B500F001F880BD27
:1029D0007047000070B50022D2434F4B984257D049
:1029E0004C680F2325461D40012D06D10C6801259A
:1029F0002D024659264346514C6825461D40022D5E
:102A000026D10C680D7C002D04D02125ED004659FF
:102A1000264304E054402125ED0046592640465106
:102A20000C680D792D062D0F04D04B25AD004659AD
:102A3000264304E054404B25AD00465926404651FC
:102A40000C68544001252D024659264046514C68D9
:102A50001C400B68042C04D14324A40005591D43D9
:102A600004E053404324A40005591D4005510B6860
:102A7000012424058D68A54204D109246401055967
:102A80001D4304E053400924640105591D400551CC
:102A90000F231B024C681C409C423BD10B688C7B73
:102AA000E40705D153402724E40005591D4003E005
:102AB0002724E40005591D4305510B688C7BA407AE
:102AC00005D453404F24A40005591D4003E04F2472
:102AD000A40005591D4305510B688C7B640705D480
:102AE00053401324240105591D4003E013242401FD
:102AF00005591D4305510B68897B090705D45340CF
:102B00004D21890042581A4003E04D218900425866
:102B10001A43425070BDC046400C024021221201AF
:102B200083588B4383507047024601204302D2589A
:102B30000A40002A00D1104670470421002202609A
:102B400041608260C260027470470000FEB51346A7
:102B50000090114D114A124C17E001930291009818
:102B6000435C5D40002609E06F0817403B46634028
:102B70000120054200D01F46761C3D46F3B2072BCC
:102B8000F2D9019B5B1E0299491C002BE5D17648C6
:102B9000A84303B0F0BDC0468CA20000FF7F000038
:102BA0000884FFFFFEB5704E02960421020C56D138
:102BB0006E4A6F4BD3606F4CD4600121CD02116817
:102BC0000195A9431160D360D4600021C94311610C
:102BD000029611680327394002290DD0D360D460D2
:102BE0001168B94302250D431560029D691E0291CB
:102BF0000921002DEDD132E00296116810252942FD
:102C000006D0029D691E02910921002DF5D126E012
:102C100000210091016002961068284206D00298B7
:102C2000411E029109210028F6D118E00296106891
:102C3000D360D460384209D01068B843106002985D
:102C4000411E029109210028F1D108E0009D156183
:102C5000D360D46010680199084310602946084683
:102C600003B0F0BDF0B585B003913F4904913F4CEE
:102C70003F4FE7603F4EE6600121CD02236801959A
:102C8000AB432360E760E6600023DB4323610292ED
:102C900083185D1E04232D0C62D1334A0492344AFA
:102CA000236803273B40012B0CD0E260E6602368D9
:102CB000BB430B432360049D6B1E04930923002D2B
:102CC000EED14DE0284A0492236810252B4206D00D
:102CD000049D6B1E04930923002DF5D140E00023D1
:102CE0001EE0039A0093D35C0246037003461E4A1B
:102CF0000492024623682B4207D0049A531E049381
:102D00000923002A0246F5D12AE01046039A009BC7
:102D1000D25C03789A4218D1009A521C401C134688
:102D2000029A9342DDD31049049111482168E06072
:102D3000E66039420BD02168B943216004994A1EEC
:102D4000049209230029F1D10AE00B4608E0002390
:102D500023610748E060E66020680199084320602D
:102D6000184605B0F0BDC046FFFF0000200002403D
:102D70005A5A0000A5A5000080B500F085F880BD76
:102D80004722920083580B438350704770B50D461D
:102D900004461120000126180878002803D00220DC
:102DA0003060002030606868A96801430920400154
:102DB000215029460C31204600F02AF805208001D8
:102DC0002158094A0A40296A6B6A49005B040B438F
:102DD000064919401143215020690121884320618F
:102DE00030680843306070BD01F801F8FE07FE0747
:102DF0002322D20083580B438350704713221201C1
:102E00008258012083031A4201D10A7000207047C2
:102E1000B0B54922920084580C4B23400C69CD6810
:102E20002D0225438C6824042C434D682D05254331
:102E3000074C2C401C43845083580124A403A34313
:102E40000968214019438150B0BDC046F0C000FF61
:102E50000F3FFF0010B504463021FFF767FD2C201F
:102E60000021215421626162A162217010BD4B22B8
:102E700092008150704781B0002000900098002897
:102E8000FCD001B0704700007CB50F200002594D06
:102E90002E683040A8608B4C0220064205D001A964
:102EA0002046FFF7ABFF00280BD0F00773D0E448B3
:102EB000C18806291BD0012923D0002923D14178BC
:102EC00065E0DF480178002933D0C188022943D169
:102ED00001A909785A297BD0C32900D184E0A5290A
:102EE000E3D141780029E0D101218170DDE742780A
:102EF0000021032A4BD142798189002A45D0090A51
:102F000045E0C17843E0C2880021202A3FD3C2882F
:102F1000394B9A423BD24289838900219A4204D29A
:102F200041894A1C4281664A515CC288521CC28057
:102F30002DE001A90978C18001210170C1882029F3
:102F4000B3D3C1882C4A9142AFD2C18820390181C4
:102F5000C18820394181A8E7C1882029A5D3C2882A
:102F600025498A42A1D24278002A0AD10289203911
:102F700089B28A4205D201894A1C0281B14A019B69
:102F80005354C188491CC1808FE701224271C9B2E4
:102F90002046FFF76CFFB005810F10D000280CD53C
:102FA000A748C188202905D3C188134A914201D27C
:102FB0000189C181002101704171002068610F48C1
:102FC000064200D0E86B300701D5002068617CBD67
:102FD0004178032903D04178042900D065E7002116
:102FE0004170C170818160E700214170C1708181B1
:102FF00001715AE714BD00403202000004300000A5
:10300000F0B593B08E4800244470C470848104816C
:103010004481C480C48104704471847004718948FF
:10302000264D2946FFF7A3F825482946FFF79FF8C4
:103030001E2000F077FA1C2000F074FA02AF142171
:103040003846FFF794F83846FFF777FD01253D74C1
:10305000C0200290122001900390F24E3046394673
:10306000FFF7B8FC0720C043B16901402943B161B3
:10307000F16901402943F16107AE3046FFF7EAFEEE
:103080002C20355420200F9011940E2008900D4FC5
:103090000D4A38463146FFF779FE0C4E3146F9317C
:1030A0003846FFF76DFE38463146FFF7A1FE01981E
:1030B00021462A46FFF744FC13B0F0BD120200007F
:1030C0002C02002000BC0040006CDC02070E000057
:1030D000F0B58DB05A4FB87800282AD00023BB70C5
:1030E000787800282BD1F889092805D8684603602C
:1030F00002241846194616E0524CA079E1790A02DA
:10310000024381208000824208D811460A3189B2E8
:103110000A30814202D8F889814226D92179E078A3
:103120006A46136002242246FFF754FA042078709E
:10313000FC703879002802D07878002801D00DB0D2
:10314000F0BD002038710890414802E00899491C00
:10315000089108998142F9D9BFF34F8F3D483E4904
:103160000160BFF34F8F00BFFDE720786D28D5D1F8
:103170006078AC28D2D1A0780128CFD1607900281E
:10318000CCD1314808320240A05CA11849780D0228
:103190000543002620463146FFF7D8FC2A4908405F
:1031A000854215D102207870FE70E07821792328BD
:1031B00016D1019102902548FFF7B4FA002816D0E5
:1031C00008A803A95CC85CC100780870052417E052
:1031D0002179E0786A461660012422463346A3E747
:1031E00008AA5682032414700126164315E0012014
:1031F000387108A803A95CC85CC100780870002475
:1032000008AD2C7001262E4303A911223046FEF78B
:1032100095FF002068820298019900226B461A608F
:10322000E2B23346FFF7D6F908A80078002803D0A9
:1032300004217970F8707CE70320787079E7C04644
:103240000800002018000020FFFF00005A5AA5A522
:103250007FBB00000CED00E00400FA0580B500F033
:1032600001F880BD704780B500F094F880BD80B54E
:1032700000F091F880BD42680A4342607047000048
:10328000F8B50D460446002060604969002903D066
:1032900001210903A96103E00321CA02A9691140C0
:1032A0000326F202636893430B43636001218A059E
:1032B000636893432F6817401F4367606368244A1D
:1032C0001A40EB68AF681F436B683B432F681F438E
:1032D0002B693B431F4F1F401743890239436160ED
:1032E0006969032920D0022927D000292ED1002086
:1032F000E0612F6A002F29D0E869FFF743F80646FE
:10330000B800FFF73FF801463046FEF794FF3F2133
:103310000906FEF737FFFFF74BF80146A061E869A1
:10332000FEF7F6FE800811E00120FFF7DFFAE66104
:10333000094820624B20800108E00120FFF7D6FAFF
:103340000220E061054820624B20C00101B0F0BDC1
:103350002339B3FFDCC24C00FB0E00004A0500001D
:1033600070B50446C0200849082200250123DB036C
:103370000326B6042160211D4DC16561A56100F0E1
:103380009DF8E061256270BD1000400080B500F03E
:1033900003F880BD70477047704780B500F006F8AD
:1033A00080BD80B500F01AF880BD000010B5DD4C7E
:1033B00004212046FFF7B8FB01280BD10421204649
:1033C000FFF7ACFB044C00212046FFF74FF92046E5
:1033D000FFF753F910BDC04600180040704780B594
:1033E00000F001F880BD704780B500F0CDF880BDD9
:1033F00010B586B001AC14212046FEF7B8FE204679
:10340000FFF79BFB1C2000F08DF80020039012209A
:10341000029020200190C3482146FFF7DBFA06B056
:1034200010BDC046000C024070B586B001AC14213E
:103430002046FEF79CFE2046FFF77FFB1C2000F095
:1034400071F8002503950948029001263004049084
:1034500004200190B3482146FFF7BCFA0221284618
:103460003246FFF76DFA06B070BDC046010F00008E
:1034700010B586B001AC14212046FEF778FE204638
:10348000FFF75BFB1C2000F04DF80020039012209A
:103490000290012040020190A2482146FFF79AFACB
:1034A00006B010BD0449504A4A60504A4A600A6852
:1034B00002430A607047C0460418024010B5134921
:1034C0000868E02202400020402A0BD0002A17D1D1
:1034D000C868000C032202400220504080000DA268
:1034E00010580DE04A690120C003094B1C68A24234
:1034F00006D05C684B2040020023A24200D0184650
:103500000968090A07220A40D04010BD001802408D
:10351000A80710000048E801006CDC0200093D002B
:10352000808D5B008106084905D40122824008682D
:10353000104308607047202290430122824048686F
:10354000104348607047C046201802400021CA431B
:1035500081060C4909D4012383405A400868104071
:1035600008600868184308607047202398430123C7
:1035700083405A4048681040486048681843486093
:103580007047C04628180240704780B500F001F827
:1035900080BD704780B5FFF791FF0149086080BD8D
:1035A0000000002080B50D4800680D4908600D48F6
:1035B0000D49C1600D49C1600121CA02036813436E
:1035C000036048030A490860FFF7E4FF09480A4915
:1035D0004160002181600521016080BDBC071000B1
:1035E0000C180240200002405A5A0000A5A5000015
:1035F00008ED00E010E000E0FFFFFF0080B500F004
:1036000005F880BD80B500F002F880BD70477047B6
:10361000F0B599B0FFF7F4FC03A8FFF778F8049829
:10362000019003242046FFF77DFF2046FFF78EFF21
:103630003C4C60680727B843012102910843606051
:103640000BAD2846FFF779FA02200C900B9020462C
:103650002946FFF7BFF910AC2046FFF781FE402056
:10366000119000261096204608301421FEF77FFDA9
:10367000FFF724FF1790E120400218902A4D2846BA
:103680002146FFF7FDFD10212846019DFFF7F3FDC0
:1036900026A0FEF7D1FF10A8067028A0294606E054
:1036A0000F220A40825C10ABDA557F1E09097A1C92
:1036B000F6D110A80672FEF7BFFF2548854209D053
:1036C000681C09D02348854208D02348854208D188
:1036D0003A4804E026A002E020A000E02DA0FEF77A
:1036E000ABFF37A0FEF7A8FFFFF79EFEFFF780FEB7
:1036F000344C20202060FFF7BBFE0298400220607F
:103700003C20FFF735F84620FFF76AF8124885425B
:1037100004D0FFF707F82C48FEF78EFFFFF7D8FC20
:10372000FCE7C046000C02400080004045365F4187
:10373000505020626F6F7420307800003031323387
:10374000343536373839414243444546000000009D
:103750005A5AA5A5A55AA55A55AAAA5520454D506D
:103760005459202D20666972737420626F6F740043
:10377000205550444154455F5245515545535420BE
:103780002D20656E74657220494150206D6F64650F
:103790000000000020494D4147455F50454E4449D7
:1037A0004E47202D206C617374204A554D505F5454
:1037B0004F5F4150502063726173680036380000DB
:1037C0000D0A0000100D0240183800002021020CE4
:1037D00001D010211046020A01D010460839020912
:1037E00001D01046091F820801D01046891E4208E8
:1037F00001D0881E7047081A704702E008C8121FDF
:1038000008C1002AFAD170477047002001E001C1C9
:10381000121F002AFBD1704745365F41505020737C
:1038200074617465202D3E20494D4147455F5641E6
:103830004C49440D0A0020494D4147455F56414CD3
:103840004944202D206C61737420626F6F74204F87
:103850004B00000078380000000000200800000045
:10386000FA37000080380000080000203808000007
:103870000A3800000000000000093D0000000000C0
:04000005000020C116
:00000001FF
